{
  "_format": "hh-sol-artifact-1",
  "contractName": "SmartWallet",
  "sourceName": "contracts/SmartWallet.sol",
  "abi": [
    {
      "anonymous": false,
      "inputs": [
        {
          "indexed": true,
          "internalType": "address",
          "name": "previousOwner",
          "type": "address"
        },
        {
          "indexed": true,
          "internalType": "address",
          "name": "newOwner",
          "type": "address"
        }
      ],
      "name": "OwnershipTransferred",
      "type": "event"
    },
    {
      "inputs": [],
      "name": "getETHBalance",
      "outputs": [
        {
          "internalType": "uint256",
          "name": "",
          "type": "uint256"
        }
      ],
      "stateMutability": "view",
      "type": "function"
    },
    {
      "inputs": [
        {
          "internalType": "address",
          "name": "token",
          "type": "address"
        }
      ],
      "name": "getTokenBalance",
      "outputs": [
        {
          "internalType": "uint256",
          "name": "",
          "type": "uint256"
        }
      ],
      "stateMutability": "view",
      "type": "function"
    },
    {
      "inputs": [],
      "name": "owner",
      "outputs": [
        {
          "internalType": "address",
          "name": "",
          "type": "address"
        }
      ],
      "stateMutability": "view",
      "type": "function"
    },
    {
      "inputs": [],
      "name": "renounceOwnership",
      "outputs": [],
      "stateMutability": "nonpayable",
      "type": "function"
    },
    {
      "inputs": [
        {
          "internalType": "address",
          "name": "newOwner",
          "type": "address"
        }
      ],
      "name": "transferOwnership",
      "outputs": [],
      "stateMutability": "nonpayable",
      "type": "function"
    },
    {
      "inputs": [
        {
          "internalType": "address",
          "name": "token",
          "type": "address"
        },
        {
          "internalType": "uint256",
          "name": "amount",
          "type": "uint256"
        }
      ],
      "name": "withdrawToOwner",
      "outputs": [],
      "stateMutability": "nonpayable",
      "type": "function"
    },
    {
      "stateMutability": "payable",
      "type": "receive"
    }
  ],
  "bytecode": "0x608060405234801561001057600080fd5b5061002d61002261003260201b60201c565b61003a60201b60201c565b6100fe565b600033905090565b60008060009054906101000a900473ffffffffffffffffffffffffffffffffffffffff169050816000806101000a81548173ffffffffffffffffffffffffffffffffffffffff021916908373ffffffffffffffffffffffffffffffffffffffff1602179055508173ffffffffffffffffffffffffffffffffffffffff168173ffffffffffffffffffffffffffffffffffffffff167f8be0079c531659141344cd1fd0a4f28419497f9722a3daafe3b4186f6b6457e060405160405180910390a35050565b6107f78061010d6000396000f3fe6080604052600436106100595760003560e01c80633aecd0e31461006557806347c62a0d146100a25780636e947298146100cb578063715018a6146100f65780638da5cb5b1461010d578063f2fde38b1461013857610060565b3661006057005b600080fd5b34801561007157600080fd5b5061008c600480360381019061008791906104eb565b610161565b6040516100999190610531565b60405180910390f35b3480156100ae57600080fd5b506100c960048036038101906100c49190610578565b6101e4565b005b3480156100d757600080fd5b506100e0610276565b6040516100ed9190610531565b60405180910390f35b34801561010257600080fd5b5061010b61027e565b005b34801561011957600080fd5b50610122610292565b60405161012f91906105c7565b60405180910390f35b34801561014457600080fd5b5061015f600480360381019061015a91906104eb565b6102bb565b005b60008173ffffffffffffffffffffffffffffffffffffffff166370a08231306040518263ffffffff1660e01b815260040161019c91906105c7565b602060405180830381865afa1580156101b9573d6000803e3d6000fd5b505050506040513d601f19601f820116820180604052508101906101dd91906105f7565b9050919050565b6101ec61033e565b8173ffffffffffffffffffffffffffffffffffffffff1663a9059cbb610210610292565b836040518363ffffffff1660e01b815260040161022e929190610624565b6020604051808303816000875af115801561024d573d6000803e3d6000fd5b505050506040513d601f19601f820116820180604052508101906102719190610685565b505050565b600047905090565b61028661033e565b61029060006103bc565b565b60008060009054906101000a900473ffffffffffffffffffffffffffffffffffffffff16905090565b6102c361033e565b600073ffffffffffffffffffffffffffffffffffffffff168173ffffffffffffffffffffffffffffffffffffffff1603610332576040517f08c379a000000000000000000000000000000000000000000000000000000000815260040161032990610735565b60405180910390fd5b61033b816103bc565b50565b610346610480565b73ffffffffffffffffffffffffffffffffffffffff16610364610292565b73ffffffffffffffffffffffffffffffffffffffff16146103ba576040517f08c379a00000000000000000000000000000000000000000000000000000000081526004016103b1906107a1565b60405180910390fd5b565b60008060009054906101000a900473ffffffffffffffffffffffffffffffffffffffff169050816000806101000a81548173ffffffffffffffffffffffffffffffffffffffff021916908373ffffffffffffffffffffffffffffffffffffffff1602179055508173ffffffffffffffffffffffffffffffffffffffff168173ffffffffffffffffffffffffffffffffffffffff167f8be0079c531659141344cd1fd0a4f28419497f9722a3daafe3b4186f6b6457e060405160405180910390a35050565b600033905090565b600080fd5b600073ffffffffffffffffffffffffffffffffffffffff82169050919050565b60006104b88261048d565b9050919050565b6104c8816104ad565b81146104d357600080fd5b50565b6000813590506104e5816104bf565b92915050565b60006020828403121561050157610500610488565b5b600061050f848285016104d6565b91505092915050565b6000819050919050565b61052b81610518565b82525050565b60006020820190506105466000830184610522565b92915050565b61055581610518565b811461056057600080fd5b50565b6000813590506105728161054c565b92915050565b6000806040838503121561058f5761058e610488565b5b600061059d858286016104d6565b92505060206105ae85828601610563565b9150509250929050565b6105c1816104ad565b82525050565b60006020820190506105dc60008301846105b8565b92915050565b6000815190506105f18161054c565b92915050565b60006020828403121561060d5761060c610488565b5b600061061b848285016105e2565b91505092915050565b600060408201905061063960008301856105b8565b6106466020830184610522565b9392505050565b60008115159050919050565b6106628161064d565b811461066d57600080fd5b50565b60008151905061067f81610659565b92915050565b60006020828403121561069b5761069a610488565b5b60006106a984828501610670565b91505092915050565b600082825260208201905092915050565b7f4f776e61626c653a206e6577206f776e657220697320746865207a65726f206160008201527f6464726573730000000000000000000000000000000000000000000000000000602082015250565b600061071f6026836106b2565b915061072a826106c3565b604082019050919050565b6000602082019050818103600083015261074e81610712565b9050919050565b7f4f776e61626c653a2063616c6c6572206973206e6f7420746865206f776e6572600082015250565b600061078b6020836106b2565b915061079682610755565b602082019050919050565b600060208201905081810360008301526107ba8161077e565b905091905056fea26469706673582212207a6a87442da6fa86dc9da3cdad2db3bdc7a5e948dd7234e5433a23a68969bd6264736f6c63430008140033",
  "linkReferences": {},
  "deployedLinkReferences": {}
}